{
  "contractName": "Health",
  "abi": [
    {
      "constant": false,
      "inputs": [
        {
          "name": "company",
          "type": "bytes32"
        }
      ],
      "name": "deregisterCompanyAddress",
      "outputs": [],
      "payable": false,
      "stateMutability": "nonpayable",
      "type": "function"
    },
    {
      "constant": true,
      "inputs": [
        {
          "name": "",
          "type": "bytes32"
        }
      ],
      "name": "companyAddress",
      "outputs": [
        {
          "name": "",
          "type": "address"
        }
      ],
      "payable": false,
      "stateMutability": "view",
      "type": "function"
    },
    {
      "constant": false,
      "inputs": [
        {
          "name": "company",
          "type": "bytes32"
        },
        {
          "name": "pubKey",
          "type": "address"
        }
      ],
      "name": "updateCompanyAddress",
      "outputs": [],
      "payable": false,
      "stateMutability": "nonpayable",
      "type": "function"
    },
    {
      "constant": true,
      "inputs": [
        {
          "name": "",
          "type": "address"
        }
      ],
      "name": "companies",
      "outputs": [
        {
          "name": "",
          "type": "bytes32"
        }
      ],
      "payable": false,
      "stateMutability": "view",
      "type": "function"
    },
    {
      "constant": true,
      "inputs": [
        {
          "name": "pubKey",
          "type": "address"
        }
      ],
      "name": "isRegisteredCompanyAddress",
      "outputs": [
        {
          "name": "",
          "type": "bool"
        }
      ],
      "payable": false,
      "stateMutability": "view",
      "type": "function"
    },
    {
      "constant": false,
      "inputs": [
        {
          "name": "hash",
          "type": "bytes32"
        }
      ],
      "name": "addMedicineRecord",
      "outputs": [],
      "payable": false,
      "stateMutability": "nonpayable",
      "type": "function"
    },
    {
      "constant": false,
      "inputs": [
        {
          "name": "hash",
          "type": "bytes32"
        }
      ],
      "name": "removeMedicineRecord",
      "outputs": [],
      "payable": false,
      "stateMutability": "nonpayable",
      "type": "function"
    },
    {
      "constant": false,
      "inputs": [
        {
          "name": "hashes",
          "type": "bytes32[]"
        }
      ],
      "name": "addMedicineRecords",
      "outputs": [],
      "payable": false,
      "stateMutability": "nonpayable",
      "type": "function"
    },
    {
      "constant": false,
      "inputs": [
        {
          "name": "hashes",
          "type": "bytes32[]"
        }
      ],
      "name": "removeMedicineRecords",
      "outputs": [],
      "payable": false,
      "stateMutability": "nonpayable",
      "type": "function"
    },
    {
      "constant": false,
      "inputs": [
        {
          "name": "company",
          "type": "bytes32"
        },
        {
          "name": "pubKey",
          "type": "address"
        }
      ],
      "name": "registerCompanyAddress",
      "outputs": [],
      "payable": false,
      "stateMutability": "nonpayable",
      "type": "function"
    },
    {
      "constant": true,
      "inputs": [],
      "name": "owner",
      "outputs": [
        {
          "name": "",
          "type": "address"
        }
      ],
      "payable": false,
      "stateMutability": "view",
      "type": "function"
    },
    {
      "constant": false,
      "inputs": [
        {
          "name": "newOwner",
          "type": "address"
        }
      ],
      "name": "changeOwner",
      "outputs": [],
      "payable": false,
      "stateMutability": "nonpayable",
      "type": "function"
    },
    {
      "constant": true,
      "inputs": [
        {
          "name": "company",
          "type": "bytes32"
        }
      ],
      "name": "isRegisteredCompany",
      "outputs": [
        {
          "name": "",
          "type": "bool"
        }
      ],
      "payable": false,
      "stateMutability": "view",
      "type": "function"
    },
    {
      "constant": true,
      "inputs": [
        {
          "name": "pubKey",
          "type": "address"
        },
        {
          "name": "timestamp",
          "type": "uint256"
        },
        {
          "name": "medType",
          "type": "string"
        },
        {
          "name": "location",
          "type": "string"
        },
        {
          "name": "optional",
          "type": "string"
        }
      ],
      "name": "doesRecordExistForCompany",
      "outputs": [
        {
          "name": "",
          "type": "bool"
        }
      ],
      "payable": false,
      "stateMutability": "view",
      "type": "function"
    },
    {
      "constant": true,
      "inputs": [
        {
          "name": "company",
          "type": "string"
        }
      ],
      "name": "getCompanyAddressFromCompany",
      "outputs": [
        {
          "name": "",
          "type": "address"
        }
      ],
      "payable": false,
      "stateMutability": "view",
      "type": "function"
    },
    {
      "constant": true,
      "inputs": [
        {
          "name": "",
          "type": "bytes32"
        },
        {
          "name": "",
          "type": "bytes32"
        }
      ],
      "name": "medicines",
      "outputs": [
        {
          "name": "",
          "type": "bytes32"
        }
      ],
      "payable": false,
      "stateMutability": "view",
      "type": "function"
    },
    {
      "inputs": [],
      "payable": false,
      "stateMutability": "nonpayable",
      "type": "constructor"
    },
    {
      "anonymous": false,
      "inputs": [
        {
          "indexed": true,
          "name": "company",
          "type": "bytes32"
        },
        {
          "indexed": true,
          "name": "companyAddressKey",
          "type": "address"
        }
      ],
      "name": "_CompanyAddressRegistered",
      "type": "event"
    },
    {
      "anonymous": false,
      "inputs": [
        {
          "indexed": true,
          "name": "company",
          "type": "bytes32"
        },
        {
          "indexed": true,
          "name": "companyAddressKey",
          "type": "address"
        }
      ],
      "name": "_CompanyAddressUpdated",
      "type": "event"
    },
    {
      "anonymous": false,
      "inputs": [
        {
          "indexed": true,
          "name": "company",
          "type": "bytes32"
        },
        {
          "indexed": true,
          "name": "companyAddressKey",
          "type": "address"
        }
      ],
      "name": "_CompanyAddressDeregistered",
      "type": "event"
    },
    {
      "anonymous": false,
      "inputs": [
        {
          "indexed": true,
          "name": "company",
          "type": "bytes32"
        },
        {
          "indexed": true,
          "name": "medicineHash",
          "type": "bytes32"
        }
      ],
      "name": "_MedicineAdded",
      "type": "event"
    },
    {
      "anonymous": false,
      "inputs": [
        {
          "indexed": true,
          "name": "company",
          "type": "bytes32"
        },
        {
          "indexed": true,
          "name": "medicineHash",
          "type": "bytes32"
        }
      ],
      "name": "_MedicineRemoved",
      "type": "event"
    }
  ],
  "bytecode": "0x6060604052341561000f57600080fd5b33600360006101000a81548173ffffffffffffffffffffffffffffffffffffffff021916908373ffffffffffffffffffffffffffffffffffffffff1602179055506114218061005f6000396000f3006060604052600436106100e6576000357c0100000000000000000000000000000000000000000000000000000000900463ffffffff16806307e8d530146100eb5780630e80a89f146101125780632ba5501e14610179578063355e6ce8146101bf5780633d88ba221461021457806348cb4f16146102655780635cd1efae1461028c5780636d8f12f3146102b35780636ee1e8e61461030d578063797bbeb4146103675780638da5cb5b146103ad578063a6f9dae114610402578063b9c1cc251461043b578063c2400a511461047a578063c4117d0e14610510578063edd2d3e6146105ad575b600080fd5b34156100f657600080fd5b6101106004808035600019169060200190919050506105fd565b005b341561011d57600080fd5b61013760048080356000191690602001909190505061083b565b604051808273ffffffffffffffffffffffffffffffffffffffff1673ffffffffffffffffffffffffffffffffffffffff16815260200191505060405180910390f35b341561018457600080fd5b6101bd60048080356000191690602001909190803573ffffffffffffffffffffffffffffffffffffffff1690602001909190505061086e565b005b34156101ca57600080fd5b6101f6600480803573ffffffffffffffffffffffffffffffffffffffff16906020019091905050610ad2565b60405180826000191660001916815260200191505060405180910390f35b341561021f57600080fd5b61024b600480803573ffffffffffffffffffffffffffffffffffffffff16906020019091905050610aea565b604051808215151515815260200191505060405180910390f35b341561027057600080fd5b61028a600480803560001916906020019091905050610b3a565b005b341561029757600080fd5b6102b1600480803560001916906020019091905050610c9f565b005b34156102be57600080fd5b61030b600480803590602001908201803590602001908080602002602001604051908101604052809392919081815260200183836020028082843782019150505050505091905050610dff565b005b341561031857600080fd5b610365600480803590602001908201803590602001908080602002602001604051908101604052809392919081815260200183836020028082843782019150505050505091905050610e93565b005b341561037257600080fd5b6103ab60048080356000191690602001909190803573ffffffffffffffffffffffffffffffffffffffff16906020019091905050610f27565b005b34156103b857600080fd5b6103c06110e4565b604051808273ffffffffffffffffffffffffffffffffffffffff1673ffffffffffffffffffffffffffffffffffffffff16815260200191505060405180910390f35b341561040d57600080fd5b610439600480803573ffffffffffffffffffffffffffffffffffffffff1690602001909190505061110a565b005b341561044657600080fd5b6104606004808035600019169060200190919050506111aa565b604051808215151515815260200191505060405180910390f35b341561048557600080fd5b6104f6600480803573ffffffffffffffffffffffffffffffffffffffff1690602001909190803590602001909190803590602001908201803590602001919091929080359060200190820180359060200191909192908035906020019082018035906020019190919290505061123a565b604051808215151515815260200191505060405180910390f35b341561051b57600080fd5b61056b600480803590602001908201803590602001908080601f0160208091040260200160405190810160405280939291908181526020018383808284378201915050505050509190505061132a565b604051808273ffffffffffffffffffffffffffffffffffffffff1673ffffffffffffffffffffffffffffffffffffffff16815260200191505060405180910390f35b34156105b857600080fd5b6105df600480803560001916906020019091908035600019169060200190919050506113d0565b60405180826000191660001916815260200191505060405180910390f35b600080600360009054906101000a900473ffffffffffffffffffffffffffffffffffffffff1673ffffffffffffffffffffffffffffffffffffffff163373ffffffffffffffffffffffffffffffffffffffff1614151561065c57600080fd5b8260405180826000191660001916815260200191505060405180910390209150600080836000191660001916815260200190815260200160002060009054906101000a900473ffffffffffffffffffffffffffffffffffffffff169050600073ffffffffffffffffffffffffffffffffffffffff16600080846000191660001916815260200190815260200160002060009054906101000a900473ffffffffffffffffffffffffffffffffffffffff1673ffffffffffffffffffffffffffffffffffffffff161415151561072f57600080fd5b600080836000191660001916815260200190815260200160002060006101000a81549073ffffffffffffffffffffffffffffffffffffffff0219169055600160008273ffffffffffffffffffffffffffffffffffffffff1673ffffffffffffffffffffffffffffffffffffffff168152602001908152602001600020600090558073ffffffffffffffffffffffffffffffffffffffff16600160008373ffffffffffffffffffffffffffffffffffffffff1673ffffffffffffffffffffffffffffffffffffffff16815260200190815260200160002054600019167f40b30261aa69701a90a385795a83664c55656525de5927da20d156f15281960060405160405180910390a3505050565b60006020528060005260406000206000915054906101000a900473ffffffffffffffffffffffffffffffffffffffff1681565b600080600360009054906101000a900473ffffffffffffffffffffffffffffffffffffffff1673ffffffffffffffffffffffffffffffffffffffff163373ffffffffffffffffffffffffffffffffffffffff161415156108cd57600080fd5b8360405180826000191660001916815260200191505060405180910390209150600073ffffffffffffffffffffffffffffffffffffffff16600080846000191660001916815260200190815260200160002060009054906101000a900473ffffffffffffffffffffffffffffffffffffffff1673ffffffffffffffffffffffffffffffffffffffff161415151561096357600080fd5b600080836000191660001916815260200190815260200160002060009054906101000a900473ffffffffffffffffffffffffffffffffffffffff169050600160008273ffffffffffffffffffffffffffffffffffffffff1673ffffffffffffffffffffffffffffffffffffffff1681526020019081526020016000206000905582600080846000191660001916815260200190815260200160002060006101000a81548173ffffffffffffffffffffffffffffffffffffffff021916908373ffffffffffffffffffffffffffffffffffffffff16021790555083600160008573ffffffffffffffffffffffffffffffffffffffff1673ffffffffffffffffffffffffffffffffffffffff16815260200190815260200160002081600019169055508273ffffffffffffffffffffffffffffffffffffffff1684600019167faad04e54ba67d0e217c973f5220c18d80ca4d4d84e23aec5d2789c70d6a011c060405160405180910390a350505050565b60016020528060005260406000206000915090505481565b600080600160008473ffffffffffffffffffffffffffffffffffffffff1673ffffffffffffffffffffffffffffffffffffffff168152602001908152602001600020546000191614159050919050565b6000600102600160003373ffffffffffffffffffffffffffffffffffffffff1673ffffffffffffffffffffffffffffffffffffffff16815260200190815260200160002054600019161415610b8e57600080fd5b8060026000600160003373ffffffffffffffffffffffffffffffffffffffff1673ffffffffffffffffffffffffffffffffffffffff168152602001908152602001600020546040518082600019166000191681526020019150506040518091039020600019166000191681526020019081526020016000206000836000191660001916815260200190815260200160002081600019169055508060001916600160003373ffffffffffffffffffffffffffffffffffffffff1673ffffffffffffffffffffffffffffffffffffffff16815260200190815260200160002054600019167f81620913b587d58f16e264bd15eb3981c3c126c22315184595a47b3dd7b2708060405160405180910390a350565b6000600102600160003373ffffffffffffffffffffffffffffffffffffffff1673ffffffffffffffffffffffffffffffffffffffff16815260200190815260200160002054600019161415610cf357600080fd5b60026000600160003373ffffffffffffffffffffffffffffffffffffffff1673ffffffffffffffffffffffffffffffffffffffff1681526020019081526020016000205460405180826000191660001916815260200191505060405180910390206000191660001916815260200190815260200160002060008260001916600019168152602001908152602001600020600090558060001916600160003373ffffffffffffffffffffffffffffffffffffffff1673ffffffffffffffffffffffffffffffffffffffff16815260200190815260200160002054600019167fe09855acb852241f5296cc29d2f7cc61be613992a034a5a7acb9079c3f729c1060405160405180910390a350565b600080600102600160003373ffffffffffffffffffffffffffffffffffffffff1673ffffffffffffffffffffffffffffffffffffffff16815260200190815260200160002054600019161415610e5457600080fd5b600090505b8151811015610e8f57610e828282815181101515610e7357fe5b90602001906020020151610b3a565b8080600101915050610e59565b5050565b600080600102600160003373ffffffffffffffffffffffffffffffffffffffff1673ffffffffffffffffffffffffffffffffffffffff16815260200190815260200160002054600019161415610ee857600080fd5b600090505b8151811015610f2357610f168282815181101515610f0757fe5b90602001906020020151610c9f565b8080600101915050610eed565b5050565b600360009054906101000a900473ffffffffffffffffffffffffffffffffffffffff1673ffffffffffffffffffffffffffffffffffffffff163373ffffffffffffffffffffffffffffffffffffffff16141515610f8357600080fd5b806000600102600160008373ffffffffffffffffffffffffffffffffffffffff1673ffffffffffffffffffffffffffffffffffffffff1681526020019081526020016000205460001916141515610fd957600080fd5b816000808560405180826000191660001916815260200191505060405180910390206000191660001916815260200190815260200160002060006101000a81548173ffffffffffffffffffffffffffffffffffffffff021916908373ffffffffffffffffffffffffffffffffffffffff16021790555082600160008473ffffffffffffffffffffffffffffffffffffffff1673ffffffffffffffffffffffffffffffffffffffff16815260200190815260200160002081600019169055508173ffffffffffffffffffffffffffffffffffffffff1683600019167fbd7879267895bd2bdeeb344e1fe7a7172efe5ed13b389837cab75265612c2dc160405160405180910390a3505050565b600360009054906101000a900473ffffffffffffffffffffffffffffffffffffffff1681565b600360009054906101000a900473ffffffffffffffffffffffffffffffffffffffff1673ffffffffffffffffffffffffffffffffffffffff163373ffffffffffffffffffffffffffffffffffffffff1614151561116657600080fd5b80600360006101000a81548173ffffffffffffffffffffffffffffffffffffffff021916908373ffffffffffffffffffffffffffffffffffffffff16021790555050565b60008073ffffffffffffffffffffffffffffffffffffffff166000808460405180826000191660001916815260200191505060405180910390206000191660001916815260200190815260200160002060009054906101000a900473ffffffffffffffffffffffffffffffffffffffff1673ffffffffffffffffffffffffffffffffffffffff1614159050919050565b600080888888888888886040518088815260200187878082843782019150508585808284378201915050838380828437820191505097505050505050505060405180910390209050600060026000600160008e73ffffffffffffffffffffffffffffffffffffffff1673ffffffffffffffffffffffffffffffffffffffff16815260200190815260200160002054604051808260001916600019168152602001915050604051809103902060001916600019168152602001908152602001600020600083600019166000191681526020019081526020016000205460001916141591505098975050505050505050565b6000806000836040518082805190602001908083835b6020831015156113655780518252602082019150602081019050602083039250611340565b6001836020036101000a03801982511681845116808217855250505050505090500191505060405180910390206000191660001916815260200190815260200160002060009054906101000a900473ffffffffffffffffffffffffffffffffffffffff169050919050565b60026020528160005260406000206020528060005260406000206000915091505054815600a165627a7a72305820c73ddc85169038b76daa131a3e045e3c203b63588e87f2c5c1a0d9095ee394320029",
  "source": "pragma solidity ^0.4.4;\n\n\ncontract Health {\n  /**\n   * @notice a mapping of companies to companyAddress public keys\n   *\n   * @example\n   * \"Medi Corp\" -> \"0x9L1m03nl0Pc5ns4kh2Kp34kl23fjskoL2m\"\n   * companyAddress[companyHash] = Public Key\n   */\n  mapping (bytes32 => address) public companyAddress;\n\n  /**\n   * @notice a mapping of companyAddress public keys and companyHash to companies\n   *\n   * @example\n   * \"0x123...abc\" -> \"Medi Corp\"\n   */\n  mapping (address => bytes32) public companies;\n\n   /**\n    * @notice a mapping of publsher companies to\n    * their hashes of authorized Medicines\n    *\n    * @example example\n    * Medicines[keccak256(company)][MedicineHash] -> MedicineHash\n    */\n  mapping (bytes32 => mapping (bytes32 => bytes32)) public medicines;\n\n  /**\n   * @notice The owner of this contract.\n   */\n  address public owner;\n\n  /**\n   * Events, when triggered, record logs in the blockchain.\n   * Clients can listen on specific events to fetch data.\n   */\n  event _CompanyAddressRegistered(bytes32 indexed company, address indexed companyAddressKey);\n  event _CompanyAddressUpdated(bytes32 indexed company, address indexed companyAddressKey);\n  event _CompanyAddressDeregistered(bytes32 indexed company, address indexed companyAddressKey);\n  event _MedicineAdded(bytes32 indexed company, bytes32 indexed medicineHash);\n  event _MedicineRemoved(bytes32 indexed company, bytes32 indexed medicineHash);\n\n  /**\n   * @notice modifier which limits execution\n   * of the function to the owner.\n   */\n  modifier onlyOwner() {\n    if (msg.sender != owner) {\n      revert();\n    }\n\n    // continue with code execution\n    _;\n  }\n\n  /**\n   * @notice modifier which checks if sender is\n   * a registered companyAddress.\n   */\n  modifier isRegistered() {\n    if (companies[msg.sender] == 0) {\n      revert();\n    }\n\n    // continue with code execution\n    _;\n  }\n\n  /**\n   * @notice modifier which checks that\n   * companyAddress doesn't exist.\n   */\n  modifier companyAddressDoesNotExist(address pubKey) {\n    if (companies[pubKey] != 0) {\n      revert();\n    }\n\n    _;\n  }\n\n  /*\n   * @notice The constructor function,\n   * called only once when this contract is initially deployed.\n   */\n  function Health() public {\n    owner = msg.sender;\n  }\n\n  /**\n   * @notice Change owner of contract.\n   * @param newOwner new owner address\n   */\n  function changeOwner(address newOwner) onlyOwner external {\n    owner = newOwner;\n  }\n\n  /**\n   * @notice Register new companyAddress.\n   * Only the owner of the contract can register new companyAddress.\n   * companyAddress public key must not already exist in order to\n   * be added or modified.\n   * @param company pubisher companies\n   * @param pubKey pubisher public key\n   */\n  function registerCompanyAddress(bytes32 company, address pubKey) onlyOwner companyAddressDoesNotExist(pubKey) external {\n    companyAddress[keccak256(company)] = pubKey;\n    companies[pubKey] = company;\n    _CompanyAddressRegistered(company, pubKey);\n  }\n\n  /**\n   * @notice Update new companyAddress.\n   * Only the owner of the contract can update companyAddress.\n   * companyAddress public key must already exist in order to\n   * be modified.\n   * @param company pubisher companies\n   * @param pubKey pubisher public key\n   */\n  function updateCompanyAddress(bytes32 company, address pubKey) onlyOwner external {\n    bytes32 companyHash = keccak256(company);\n    require(companyAddress[companyHash] != address(0));\n\n    // remove old companyAddress key\n    address oldPubKey = companyAddress[companyHash];\n    delete companies[oldPubKey];\n\n    // Update companyAddress pubKey \n    companyAddress[companyHash] = pubKey;\n    companies[pubKey] = company;\n\n   _CompanyAddressUpdated(company, pubKey);\n  }\n\n  /**\n   * @notice Deregister existing companyAddress.\n   * Only contract owner is allowed to deregister.\n   * @param company  public key\n   */\n  function deregisterCompanyAddress(bytes32 company) onlyOwner external {\n    bytes32 companyHash = keccak256(company);\n    address pubKey = companyAddress[companyHash];\n    require(companyAddress[companyHash] != address(0));\n    // order matters here, delete pub from map first.\n    delete companyAddress[companyHash];\n    delete companies[pubKey];\n\n   _CompanyAddressDeregistered(companies[pubKey], pubKey);\n  }\n\n  /**\n   * @notice Allow companyAddress to add a Medicine by the hash of the Medicine information.\n   * @param hash keccak256 hash of Medicine information\n   */\n  function addMedicineRecord(bytes32 hash) isRegistered public {\n    medicines[keccak256(companies[msg.sender])][hash] = hash;\n   _MedicineAdded(companies[msg.sender], hash);\n  }\n\n  /**\n   * @notice Allow companyAddress to add multiple Medicines by providing an array of hashes of the Medicine information.\n   * @param hashes an array of hashes of Medicine information\n   */\n  function addMedicineRecords(bytes32[] hashes) isRegistered public {\n    for (uint256 i = 0; i < hashes.length; i++) {\n      addMedicineRecord(hashes[i]);\n    }\n  }\n\n  /**\n   * @notice Remove Medicine from companyAddress\n   * @param hash keccak256 hash of Medicine information\n   */\n  function removeMedicineRecord(bytes32 hash) isRegistered public {\n    delete medicines[keccak256(companies[msg.sender])][hash];\n   _MedicineRemoved(companies[msg.sender], hash);\n  }\n\n  /**\n   * @notice Allow companyAddress to remove multiple Medicines by providing an array of hashes of the Medicine information.\n   * @param hashes an array of hashes of the Medicine information\n   */\n  function removeMedicineRecords(bytes32[] hashes) isRegistered public {\n    for (uint256 i = 0; i < hashes.length; i++) {\n      removeMedicineRecord(hashes[i]);\n    }\n  }\n\n  /**\n    * @notice Get companyAddress public key from companies name\n    * @param company companies of companyAddress\n    * @return companyAddress public key\n    */\n  function getCompanyAddressFromCompany(string company) public constant returns (address) {\n    return companyAddress[keccak256(company)];\n  }\n\n  /**\n   * @notice Check if companyAddress is registered.\n   * @param pubKey companyAddress public key\n   * @return bool\n   */\n  function isRegisteredCompanyAddress(address pubKey) external constant returns (bool) {\n    return (companies[pubKey] != \"\");\n  }\n\n  /**\n   * @notice Check if companyAddress is registered by companies\n   * @param company pubisher companies\n   * @return bool\n   */\n  function isRegisteredCompany(bytes32 company) external constant returns (bool) {\n    return (companyAddress[keccak256(company)] != address(0));\n  }\n\n  /**\n   * @notice Return true if is Medicine for companyAddress\n   * @param pubKey companyAddress public key\n   * @param timestamp companies of Medicine\n   * @param medType associated with Medicine or reMedicine in advertising system \n   * @param location Relationship of Medicine. (Direct: 0, ReMedicine: 1)\n   * @param optional Optional Params (tagId, format, region)\n   * @return boolean\n   */\n  function doesRecordExistForCompany(\n    address pubKey,\n    uint timestamp,\n    string medType,\n    string location,\n    string optional\n  )\n  external\n  constant\n  returns (bool) \n  {\n    bytes32 hash = keccak256(timestamp, medType, location, optional);\n    return (medicines[keccak256(companies[pubKey])][hash] != \"\");\n  }\n}\n\n",
  "sourcePath": "/Users/nicholasporter/Desktop/alldata/health/contracts/Health.sol",
  "compiler": {
    "name": "solc",
    "version": "0.4.18+commit.9cf6e910.Emscripten.clang"
  },
  "schemaVersion": "1.0.1",
  "updatedAt": "2018-05-14T21:40:02.094Z"
}